:1000000002075C020022D2A4C2A522020A43C2A4B3
:10001000D2A52202002AD2A4D2A52202003243DEB7
:1000200080223202003675FBAA2232020037E4F544
:10003000FB2232020038323232323202003932329E
:1000400032323202003A323232323202003E323240
:0C00530002003F90F004E4F0539AEF220A
:0300630002004058
:03006B000200414F
:0300730002004246
:03007B000200463A
:0B00830002004790F692E0547FF0224C
:0300930002004820
:03009B0002004917
:0300A30002004A0E
:0300AB0002004E02
:1000B30002004F0529C3E52994FF74809480400210
:1000C3001529200003020215C200E527F465266006
:1000D300030202C3F528F529D207AF26D20FEF1288
:1000E300068D01558001958101248201B09901CBD0
:1000F300C10208C5012FCA01E5CE017AD20107DC8E
:10010300000002C3B210301015E4900007F0900015
:100113000E7403F0E490000FF0A3F0F53022D20F39
:10012300222010030202C3B20ED20F2220100302B8
:1001330002C3D20CC209900002E0C394FE748094FF
:1001430080400674FEF0020203900002E004F00215
:1001530002032010030202C3D20CC209900002E082
:10016300C394FE74809480400574FEF08006900072
:1001730002E004F00202032010030202C3D20CC205
:1001830008900002E07003F08006900002E014F093
:10019300806E2010030202C3D20CC208900002E05A
:1001A3007003F08006900002E014F08053201003E7
:1001B3000202C390000AE0640170057402F0800635
:1001C30090000AE014F080382010030202C390006C
:1001D3000AE06402700404F0800690000AE004F070
:1001E300801E2010030202C3900001E0C394047434
:1001F30080948040057401F08006900001E004F0D3
:1002030090000080092010030202C390001A7401B9
:10021300F0222004030202A5C2042007030202C342
:10022300E4F528C3E529947874809480500302028E
:10023300C31529D203D20FE5262480602114604C14
:1002430024AF603924087078301075D20CC209903D
:100253000002E0C394FE74809480401A801430102E
:100263005FD20CC209900002E0C394FE74809480B4
:10027300400474FEF022900002E004F022301040AB
:10028300D20CC208900002E07011F022301031D27B
:100293000CC208900002E07002F022900002E01409
:1002A300F0223007120528C3E52894157480948042
:1002B300400E1528C20722C207C203E4F528F52918
:1002C3002220061C308403020404E4F52EC205F543
:1002D30023C202C201C204C200F52AF52DD20622AE
:1002E3003004193084030204040523C3E523940A6C
:1002F300748094805003020404C206222001030286
:1003030003A2300017208411C3E523940A74809458
:10031300805003020404C20622C2062230841B203A
:100323000505D205E4F5230523C3E523941474805E
:1003330094805003020404C20622300552C205E52C
:100343002EC313F52ED3E523940A748094804003BF
:10035300432E80052DC3E52D940874809480402C92
:10036300E4F52D7424252AF8A62E052AC3E52A943C
:1003730004748094804015E4F52AE52464B2600394
:10038300020404E525644D7078D20022E4F52305C8
:1003930023C3E523940A748094804065C206223007
:1003A30002393084100523C3E52394377480948085
:1003B300404FC20622AF237E00C3EF941A74809489
:1003C300805004D204800DD3EF9420EE6480948097
:1003D3004006D201E4F52322C2062220841005231D
:1003E300C3E523945F748094804016C20622D3E54C
:1003F30023944B748094804006E4F523D20222C2F6
:1004030006222010030204FF20090330080302041C
:10041300F77D08E4FF1206B38E398F3A300C4DC2D4
:100423000CC20BC20D120016900002E0FF75F00221
:10043300A4248CF582E5F0340FF583E493FC740176
:1004430093FDD3953AEC95395009EF95384004D292
:100453000B8013C3ED953AEC9539400A900002E006
:1004630095385002D20D900002E0F538300B41125E
:100473000006900002E075F002A4248CF582E5F0FA
:10048300340FF58374019324FDFFE49334FFFED30B
:10049300E53A9FE5399E5005120016C20B90000203
:1004A300E0C394FE748094804003D20822C20822E1
:1004B300300D4112000E900002E075F002A4248C6E
:1004C300F582E5F0340FF58374019324FDFFE49383
:1004D30034FFFEC3E53A9FE5399E4005120016C27C
:1004E3000D900002E0D39400748094805003D209ED
:1004F30022C20922120016C20BC20D22C208C2096F
:1005030022120E68120A9A120D83120F3C12005621
:10051300120F6B120C64D2AFE4900007F090000E40
:100523007403F0D210C20E900007E06006120B8B2A
:10053300120AEB900018E060EEE4F01209729000EA
:1005430007E01460080470DF1207F680DA90000DEC
:10055300E004F0C3940A74809480402090000974EE
:1005630001F0E490000DF0120B3B120D161209E29C
:10057300120F7D120405120CDE1200B690000BE47C
:1005830075F001120677FEC3E5F094F4EE94014092
:1005930096900000E06090E490000BF0A3F09000D0
:1005A30000F0120026E4FDFC7F10120DE87B55E4F9
:1005B300FDFC7F10120DB77B2A7D017C007F10129A
:1005C3000DB790000AE0FB7D027C007F10120DB78F
:1005D300900001E0FB7D037C007F10120DB79000BB
:1005E30002E0FB7D047C007F10120DB712002E0287
:1005F300052ABB010CE58229F582E5833AF583E000
:10060300225006E92582F8E622BBFE06E92582F898
:10061300E222E58229F582E5833AF583E49322BC5D
:10062300000BBE0029EF8DF084FFADF022E4CCF87F
:1006330075F008EF2FFFEE33FEEC33FCEE9DEC98E4
:100643004005FCEE9DFE0FD5F0E9E4CEFD22EDF86A
:10065300F5F0EE8420D21CFEADF075F008EF2FFF0D
:10066300ED33FD4007985006D5F0F222C398FD0FF5
:10067300D5F0EA22C5F0F8A3E028F0C5F0F8E5824A
:10068300158270021583E038F022D083D082F8E41B
:10069300937012740193700DA3A393F8740193F5EF
:1006A300828883E4737402936860EFA3A3A380DF5B
:1006B3008D18E4F519F51AFDFCF51BF51C74FFF50F
:1006C3001DF51EE4F51FE518D3940874809480404B
:1006D30003751808EF42DE43DF02E5DF30E1FBE498
:1006E300F51FE5182402FFE433FEC3E51F9FEE6404
:1006F30080F8748098503943DF02E5DF30E1FB1264
:100703000E43AC06AD07D3ED951CEC951B40068C50
:100713001B8D1C800DC3ED951EEC951D50048C1D87
:100723008D1EED251AF51AEC3519F519051F80B242
:10073300C3E51A951CF51AE519951BF519C3E51AB6
:10074300951EF51AE519951DF519FEAF1AAD187C1E
:10075300001206228E198F1A2278FFE4F6D8FD9034
:1007630000007F007E04E4F0A3DFFCDEFA75813B2A
:100773000207B1020504E493A3F8E493A34003F64C
:100783008001F208DFF48029E493A3F85407240CD2
:10079300C8C333C4540F4420C8834004F4568001B3
:1007A30046F6DFE4800B0102040810204080900C21
:1007B300A5E47E019360BCA3FF543F30E509541FB9
:1007C300FEE493A360010ECF54C025E060A840B8B7
:1007D300E493A3FAE493A3F8E493A3C8C582C8CA35
:1007E300C583CAF0A3C8C582C8CAC583CADFE9DE08
:1007F300E780BE90000EE0D394007480948040297B
:10080300900010E004F0700690000FE004F0C39035
:100813000010E094E890000FE094034040E4F0A35C
:10082300F090000EE014F08031E490000EF09000A0
:1008330010E004F0700690000FE004F0C390001085
:10084300E094F490000FE094014012E4F0A3F090E0
:10085300000EF090000704F0D20FE4F53090001181
:10086300740AF0A304F0A304F0A304F0A3F090002F
:100873000EE0900016F0E5307006753001120D4D54
:1008830022A2B0E433F510A2B1E433F512E510B5BA
:100893001414E512D39516400D851216851014E530
:1008A3001070037F0222E510B51416E512C39516E6
:1008B300500F851216851014E510640170037F0232
:1008C30022E512B51614E510D39514400D851216C2
:1008D300851014E51270037F0122E512B51616E5A3
:1008E30010C39514500F851216851014E512640178
:1008F30070037F01227F0022A2B6E433F511A285A3
:10090300E433F513E511B51514E513D39517400D2D
:10091300851317851115E51170037F0222E511B5C3
:100923001516E513C39517500F851317851115E594
:1009330011640170037F0222E513B51714E511D387
:100943009515400D851317851115E51370037F0168
:1009530022E513B51716E511C39515500F85131727
:10096300851115E513640170037F01227F00229036
:100973000007E0606930104E90000AE0900011F02B
:10098300A3740DF0900001E0900013F0300E0AA361
:10099300740DF0A3F0A3F08028900002E0FF75F03F
:1009A3006484900014F0EF75F06484E5F075F00A48
:1009B30084A3F0900002E075F00A84900016E5F03D
:1009C300F0300F1A8013900011740DF0A3F0A3F010
:1009D300A3F0A3F0A3F0300F05C20F120D4D223088
:1009E3001051200E4E90000AE0FF7E006401700655
:1009F300D2A3C2A2800AEF64024E7004D2A2C2A3A1
:100A0300900001E024FE601014601614601C24039F
:100A1300702DD296C2958004C296D295C294C29389
:100A230022C296C295D294C29322C296C295C29410
:100A3300D29322C296C295C294C293C2A3C2A222E7
:100A4300C0E0C0F0C083C082C0D075D000C000C079
:100A530001C002C003C004C005C006C0071202C41F
:100A63009000177401F0900019E004F0C3940A7425
:100A73008094804007E4F090001804F0D007D0067B
:100A8300D005D004D003D002D001D000D0D0D08282
:100A9300D083D0F0D0E03290F030E4F053A3FEA343
:100AA300F053A3FD90F03AE04404F090F032E4F008
:100AB30053A3FB90F036F053A3BF90F005F0539A85
:100AC300DF90F02AE04440F090F026E4F053A2BF18
:100AD300A2B633F517A285E433F515A2B0E433F5D6
:100AE30016A2B1E433F514221208FB8F0D200E4732
:100AF300E50D24FE601D04703ED20FD20CC2099096
:100B03000002E06401700404F08026900002E01407
:100B1300F0801ED20FD20CC208900002E0C394FEF4
:100B230074809480400574FEF08006900002E00417
:100B3300F09000007401F02220B237E4F5090508B3
:100B4300D3E508940374809480403C1508E50E7047
:100B530036750E01D20F90000004F090000AE09465
:100B6300027480948040047401F02290000AE0042F
:100B7300F022E4F5080509C3E50994037480948021
:100B830040051509E4F50E221208848F0CE50C24A8
:100B9300FE601F04703CD20F900001E0D3940474F4
:100BA30080948040057401F08022900001E004F0FD
:100BB300801AD20F900001E0D39401748094805086
:100BC300057404F08006900001E014F090000074B6
:100BD30001F022EF14601824FE602A14602F24040D
:100BE3007038AE895306F8ED25E025E04B8011AE51
:100BF3008953068FEBC454F0FFEDC4333354C04F15
:100C030042068E8922AED25306FCEB8009AED25344
:100C130006CFEBC454F042068ED222EF14601824A0
:100C2300FE602214602B24047036AE8E5306F7ED5B
:100C330033333354F88009AE8E5306EFEDC454F0CA
:100C430042068E8E22AED25306FBED25E025E080D0
:100C53000BAED25306BFEDC4333354C042068ED21B
:100C630022C2A3C2A2C296C295C294C293C2979053
:100C7300F023E4F043A20890F022F043A20490F0A2
:100C830016F043A14090F015F043A12090F014F02A
:100C930043A11090F013F043A10890F017F043A183
:100CA3008022410000000434016E3600460011002A
:100CB30000000000000130000110000112000114C7
:100CC30000011600011100011300011500011700B6
:100CD300013BFF023900000138000090001AE06474
:100CE30001702CC3E52B940174809480401EE4F5BD
:100CF3002BD20FD20C900002E06401700804F0E4E0
:100D030090001AF022900002E014F022052B22E456
:100D1300F52B2220A61EE4F50B050AC3E50A94036E
:100D2300748094804023150AE50F701D750F01D25E
:100D33000FB20E22E4F50A050BC3E50B940374808E
:100D430094804005150BE4F50F22120F54E4FAEAE0
:100D5300C3940674809480501FEA25E024C0FF12D8
:100D63000F5B74112AF582E43400F583E090118A55
:100D730093FF120E170A80D77F8A120F5BD281224C
:100D830090F001E4F0439A0290F009E04402F090FD
:100D9300F002E4F0439A0490F009E04404F090F088
:100DA30003E4F0439A0890F009E04408F0D282D2B9
:100DB30081D28322AA078BFE8DFC8CFD30AF15C236
:100DC300AFEA4409F5FF000000000000E5FF20E062
:100DD300FBD2AF22EA4409F5FF000000000000E562
:100DE300FF20E0FB22AB078DFC8CFD30AF15C2AFBB
:100DF300EB440DF5FF000000000000E5FF20E0FBE1
:100E0300D2AF22EB440DF5FF000000000000E5FF28
:100E130020E0FB22AC07E4FBEBC3940874809480CE
:100E2300501DC282EC30E004D2838002C2837F0A69
:100E3300120F09D282120F09ECC313FC0B80D922C3
:100E4300E5DFAFDD20E613EF75F010A4FFE5DCC4AA
:100E5300540FFDEF4DFFE5F08007EFFEADDCEDFF36
:100E6300EE540FFE227B02E4FDFF120BD6E4FDFFDE
:100E7300120C1E7B387D38E4FF120E8CE4FF120E39
:100E8300EC53B8FDE4FF020EAFEF14601024FE60D4
:100E930011146013240470138D8C8B8A228D8D8B17
:100EA3008B228DDB8BDA228DE38BE222EF14600F32
:100EB30024FE600F1460102404700F438810224333
:100EC30088402243D2082243D28022AEDF53067FDA
:100ED300EF541033333354F842068EDFAEDE53063D
:100EE300F0EF540F42068EDE22EF14600E24FE60F4
:100EF3000D14600E2404700DD2A922D2AB2243AA92
:100F0300012243AA02227E01EED39F5013E4FDED9A
:100F1300C39496748094805004000D80F20E80E890
:100F230022AEDF5306BFED42068EDFAEDE53068FE1
:100F3300EFC454F042068EDE22E4FD7F03120F2439
:100F4300E4FF120ECE90F0007401F012008602004E
:100F53001E7F02120F5B7F40AC07D2817F0A120F04
:100F630009C281AF04020E17C2A4C2A590F024E403
:100F7300F043A210A3F043A22022301009300E0345
:100F8300D29722C29722D297220FFF0FEF0FDF0FC4
:100F9300D00FC00FB10FA10F920F820F720F630F0B
:100FA300530F440F340F250F150F060EF60EE60EE2
:100FB300D70EC70EB80EA80E990E890E790E6A0EBB
:100FC3005A0E4B0E3B0E2C0E1C0E0D0DFD0DED0D92
:100FD300DE0DCE0DBF0DAF0DA00D900D800D710D6B
:100FE300610D520D420D330D230D140D040CF40C41
:100FF300E50CD50CC60CB60CA70C970C880C780C1A
:10100300680C590C490C3A0C2A0C1B0C0B0BFB0BF0
:10101300EC0BDC0BCD0BBD0BAE0B9E0B8F0B7F0BC9
:101023006F0B600B500B410B310B220B120B020A9F
:10103300F30AE30AD40AC40AB50AA50A960A860A79
:10104300760A670A570A480A380A290A190A0A094E
:10105300FA09EA09DB09CB09BC09AC099D098D0929
:101063007D096E095E094F093F09300920091109FD
:101073000108F108E208D208C308B308A4089408D9
:1010830084087508650856084608370827081808AD
:101093000807F807E907D907CA07BA07AB079B0789
:1010A3008C077C076C075D074D073E072E071F075C
:1010B3000F06FF06F006E006D106C106B206A20639
:1010C300930683067306640654064506350626060C
:1010D30016060605F705E705D805C805B905A905E8
:1010E3009A058A057A056B055B054C053C052D05BC
:1010F3001D050E04FE04EE04DF04CF04C004B00497
:10110300A10491048104720462045304430434046B
:10111300240415040503F503E603D603C703B70345
:10112300A80398038803790369035A034A033B031B
:101133002B031C030C02FC02ED02DD02CE02BE02F5
:10114300AF029F02900280027002610251024202CA
:101153003202230213020301F401E401D501C501A4
:10116300B601A6019701870177016801580149017A
:1011730039012A011A010A00FB00EB00DC00CC0054
:10118300BD00AD009E008E3F065B4F666D7D077F01
:051193006F5E306E40AC
:00000001FF
